00COTAHIST.2011BOVESPA 20111229                                                                                                                                                                                                                      
012011010302ABCB4       010ABC BRASIL  PN  EJ  N2   R$  000000000147800000000014950000000001450000000000148400000000014870000000001487000000000149900226000000000000213300000000000316726900000000000000009999123100000010000000000000BRABCBACNPR4113